101 990000013 9876543212405241637A188101DEST NAME              ORIGIN NAME            XXXXXXXX
5200My Company      DiscretionaryData   1234567890PPDComp desc 2405242405241451061000010000001
622267084131123              000002482301223344       Sue Flay              LC0000000100000001
627267084131123              000008368601223344       Will Power            LC0000000100000002
627267084131123              000004236601223344       Barry Cuda            LC0000000100000003
622267084131123              000007573201223344       Will Power            LC0000000100000004
627267084131123              000004947001223344       Justin Time           LC0000000100000005
627267084131123              000005061201223344       Justin Time           LC0000000100000006
627267084131123              000003669501223344       Sue Flay              LC0000000100000007
622267084131123              000006259301223344       Al Beback             LC0000000100000008
622267084131123              000007860001223344       Sandy Beaches         LC0000000100000009
627267084131123              000007929801223344       Al Beback             LC0000000100000010
820000001000330033000000003421270000002417481234567890                         061000010000001
9000001000010000000100267084130000000342127000000241748                                       