101 990000013 9876543212405180723A188101DEST NAME              ORIGIN NAME            XXXXXXXX
5200My Company      DiscretionaryData   1234567890PPDComp desc 2405182405181391061000010000001
627267084131123              000004606301223344       Justin Time           LC0000000100000001
622267084131123              000005777301223344       Paige Turner          LC0000000100000002
622267084131123              000003451501223344       Sandy Beaches         LC0000000100000003
627267084131123              000000634201223344       Sue Flay              LC0000000100000004
622267084131123              000003294401223344       Sandy Beaches         LC0000000100000005
627267084131123              000004164401223344       Sue Flay              LC0000000100000006
627267084131123              000008768601223344       Barry Cuda            LC0000000100000007
627267084131123              000002217101223344       Terry Aki             LC0000000100000008
622267084131123              000008837601223344       Justin Time           LC0000000100000009
627267084131123              000001818101223344       Ella Vator            LC0000000100000010
820000001000330033000000002220870000002136081234567890                         061000010000001
9000001000010000000100267084130000000222087000000213608                                       