101 990000013 9876543212405160642A188101DEST NAME              ORIGIN NAME            XXXXXXXX
5200My Company      DiscretionaryData   1234567890PPDComp desc 2405162405161371061000010000001
622267084131123              000002330001223344       Will Power            LC0000000100000001
622267084131123              000002439401223344       Justin Time           LC0000000100000002
627267084131123              000009374101223344       Holly Wood            LC0000000100000003
627267084131123              000008054001223344       Barry Cuda            LC0000000100000004
627267084131123              000003964701223344       Terry Aki             LC0000000100000005
622267084131123              000009956101223344       Justin Time           LC0000000100000006
627267084131123              000000052001223344       Barry Cuda            LC0000000100000007
622267084131123              000008265201223344       Al Beback             LC0000000100000008
627267084131123              000000936501223344       Sue Flay              LC0000000100000009
622267084131123              000005930501223344       Holly Wood            LC0000000100000010
820000001000330033000000002238130000002892121234567890                         061000010000001
9000001000010000000100267084130000000223813000000289212                                       