101 990000013 9876543212405180723i094101DEST NAME              ORIGIN NAME            XXXXXXXX
5225My Company      DiscretionaryData   1234567890PPDComp desc 2405182405181391061000010000001
627267084131123              000000010001223344       John Doe              LC0000000100000001
822500000100330033000000000001000000000000001234567890                         061000010000001
9000001000010000000010026708413000000000100000000000000                                       