101 990000013 9876543212403291625A188101DEST NAME              ORIGIN NAME            XXXXXXXX
5200My Company      DiscretionaryData   1234567890PPDComp desc 2403292403290891061000010000001
622267084131123              000009102801223344       Sandy Beaches         LC0000000100000001
627267084131123              000009517001223344       Barry Cuda            LC0000000100000002
627267084131123              000005703401223344       Sue Flay              LC0000000100000003
622267084131123              000006640501223344       Al Beback             LC0000000100000004
627267084131123              000008880101223344       Justin Time           LC0000000100000005
627267084131123              000003205901223344       Sue Flay              LC0000000100000006
627267084131123              000008944201223344       Terry Aki             LC0000000100000007
622267084131123              000002094901223344       Holly Wood            LC0000000100000008
622267084131123              000000475701223344       Holly Wood            LC0000000100000009
622267084131123              000000569501223344       Paige Turner          LC0000000100000010
820000001000330033000000003625060000001888341234567890                         061000010000001
9000001000010000000100267084130000000362506000000188834                                       