101 990000013 9876543212406020646A188101DEST NAME              ORIGIN NAME            XXXXXXXX
5200My Company      DiscretionaryData   1234567890PPDComp desc 2406022406021541061000010000001
627267084131123              000005595101223344       Terry Aki             LC0000000100000001
622267084131123              000007143101223344       Al Beback             LC0000000100000002
622267084131123              000003878501223344       Sandy Beaches         LC0000000100000003
627267084131123              000001354301223344       Paige Turner          LC0000000100000004
622267084131123              000005789701223344       Will Power            LC0000000100000005
622267084131123              000008867001223344       Holly Wood            LC0000000100000006
622267084131123              000001166501223344       Paige Turner          LC0000000100000007
622267084131123              000008289501223344       Sandy Beaches         LC0000000100000008
622267084131123              000004050201223344       Sandy Beaches         LC0000000100000009
622267084131123              000003457101223344       Al Beback             LC0000000100000010
820000001000330033000000000694940000004264161234567890                         061000010000001
9000001000010000000100267084130000000069494000000426416                                       