101 990000013 9876543212406180645A188101DEST NAME              ORIGIN NAME            XXXXXXXX
5200My Company      DiscretionaryData   1234567890PPDComp desc 2406182406181701061000010000001
622267084131123              000009636001223344       Al Beback             LC0000000100000001
622267084131123              000004517801223344       Sue Flay              LC0000000100000002
627267084131123              000000755001223344       Sandy Beaches         LC0000000100000003
622267084131123              000005094701223344       Justin Time           LC0000000100000004
627267084131123              000000172501223344       Justin Time           LC0000000100000005
622267084131123              000004515101223344       Paige Turner          LC0000000100000006
622267084131123              000000780901223344       Sue Flay              LC0000000100000007
622267084131123              000003216601223344       Holly Wood            LC0000000100000008
622267084131123              000008530901223344       Paige Turner          LC0000000100000009
627267084131123              000004785601223344       Al Beback             LC0000000100000010
820000001000330033000000000571310000003629201234567890                         061000010000001
9000001000010000000100267084130000000057131000000362920                                       