101 990000013 9876543212405250631A188101DEST NAME              ORIGIN NAME            XXXXXXXX
5200My Company      DiscretionaryData   1234567890PPDComp desc 2405252405251461061000010000001
622267084131123              000002389801223344       Sandy Beaches         LC0000000100000001
627267084131123              000004612001223344       Sue Flay              LC0000000100000002
627267084131123              000005094601223344       Sue Flay              LC0000000100000003
622267084131123              000007749901223344       Holly Wood            LC0000000100000004
627267084131123              000006968801223344       Sue Flay              LC0000000100000005
627267084131123              000004567101223344       Holly Wood            LC0000000100000006
627267084131123              000000217301223344       Justin Time           LC0000000100000007
622267084131123              000003737601223344       Holly Wood            LC0000000100000008
627267084131123              000003731701223344       Barry Cuda            LC0000000100000009
622267084131123              000007418901223344       Barry Cuda            LC0000000100000010
820000001000330033000000002519150000002129621234567890                         061000010000001
9000001000010000000100267084130000000251915000000212962                                       